{
  "contractName": "Interface",
  "abi": [
    {
      "constant": true,
      "inputs": [],
      "name": "roomPrice",
      "outputs": [
        {
          "name": "",
          "type": "uint256"
        }
      ],
      "payable": false,
      "stateMutability": "view",
      "type": "function",
      "signature": "0x6c036162"
    },
    {
      "constant": true,
      "inputs": [
        {
          "name": "",
          "type": "uint256"
        }
      ],
      "name": "registeredUsers",
      "outputs": [
        {
          "name": "",
          "type": "address"
        }
      ],
      "payable": false,
      "stateMutability": "view",
      "type": "function",
      "signature": "0x7259e0f8"
    },
    {
      "constant": true,
      "inputs": [],
      "name": "owner",
      "outputs": [
        {
          "name": "",
          "type": "address"
        }
      ],
      "payable": false,
      "stateMutability": "view",
      "type": "function",
      "signature": "0x8da5cb5b"
    },
    {
      "constant": true,
      "inputs": [],
      "name": "EtokenContract",
      "outputs": [
        {
          "name": "",
          "type": "address"
        }
      ],
      "payable": false,
      "stateMutability": "view",
      "type": "function",
      "signature": "0x9255d1e6"
    },
    {
      "constant": true,
      "inputs": [
        {
          "name": "",
          "type": "address"
        }
      ],
      "name": "Users",
      "outputs": [
        {
          "name": "name",
          "type": "string"
        },
        {
          "name": "email",
          "type": "string"
        },
        {
          "name": "password",
          "type": "string"
        },
        {
          "name": "registered",
          "type": "bool"
        }
      ],
      "payable": false,
      "stateMutability": "view",
      "type": "function",
      "signature": "0x99b956a0"
    },
    {
      "constant": true,
      "inputs": [],
      "name": "HouseContract",
      "outputs": [
        {
          "name": "",
          "type": "address"
        }
      ],
      "payable": false,
      "stateMutability": "view",
      "type": "function",
      "signature": "0xbf656614"
    },
    {
      "inputs": [
        {
          "name": "_HouseContract",
          "type": "address"
        },
        {
          "name": "_EtokenContract",
          "type": "address"
        },
        {
          "name": "_price",
          "type": "uint256"
        }
      ],
      "payable": false,
      "stateMutability": "nonpayable",
      "type": "constructor",
      "signature": "constructor"
    },
    {
      "constant": false,
      "inputs": [
        {
          "name": "_user",
          "type": "address"
        },
        {
          "name": "_password",
          "type": "string"
        },
        {
          "name": "_email",
          "type": "string"
        },
        {
          "name": "_name",
          "type": "string"
        }
      ],
      "name": "register",
      "outputs": [
        {
          "name": "success",
          "type": "bool"
        }
      ],
      "payable": false,
      "stateMutability": "nonpayable",
      "type": "function",
      "signature": "0x063d93d8"
    },
    {
      "constant": true,
      "inputs": [
        {
          "name": "_password",
          "type": "string"
        }
      ],
      "name": "login",
      "outputs": [
        {
          "name": "",
          "type": "bool"
        }
      ],
      "payable": false,
      "stateMutability": "view",
      "type": "function",
      "signature": "0x3a7d280c"
    },
    {
      "constant": false,
      "inputs": [
        {
          "name": "_housename",
          "type": "bytes32"
        },
        {
          "name": "_roomnumber",
          "type": "uint256"
        },
        {
          "name": "_amount",
          "type": "uint256"
        }
      ],
      "name": "rentRoom",
      "outputs": [
        {
          "name": "success",
          "type": "bool"
        }
      ],
      "payable": false,
      "stateMutability": "nonpayable",
      "type": "function",
      "signature": "0x87f1cc81"
    },
    {
      "constant": true,
      "inputs": [],
      "name": "usersdipslay",
      "outputs": [
        {
          "name": "",
          "type": "address[]"
        }
      ],
      "payable": false,
      "stateMutability": "view",
      "type": "function",
      "signature": "0x83a251ad"
    },
    {
      "constant": true,
      "inputs": [
        {
          "name": "_user",
          "type": "address"
        }
      ],
      "name": "userdetails",
      "outputs": [
        {
          "name": "name",
          "type": "string"
        },
        {
          "name": "email",
          "type": "string"
        }
      ],
      "payable": false,
      "stateMutability": "view",
      "type": "function",
      "signature": "0x7d02edad"
    }
  ],
  "bytecode": "0x608060405234801561001057600080fd5b506040516060806114cb8339810180604052606081101561003057600080fd5b8101908080519060200190929190805190602001909291908051906020019092919050505082600160006101000a81548173ffffffffffffffffffffffffffffffffffffffff021916908373ffffffffffffffffffffffffffffffffffffffff16021790555081600260006101000a81548173ffffffffffffffffffffffffffffffffffffffff021916908373ffffffffffffffffffffffffffffffffffffffff160217905550806003819055505050506113db806100f06000396000f3fe6080604052600436106100af576000357c0100000000000000000000000000000000000000000000000000000000900463ffffffff168063063d93d8146100b45780633a7d280c146102e25780636c036162146103c25780637259e0f8146103ed5780637d02edad1461046857806383a251ad1461059e57806387f1cc811461060a5780638da5cb5b146106715780639255d1e6146106c857806399b956a01461071f578063bf656614146108cc575b600080fd5b3480156100c057600080fd5b506102c8600480360360808110156100d757600080fd5b81019080803573ffffffffffffffffffffffffffffffffffffffff1690602001909291908035906020019064010000000081111561011457600080fd5b82018360208201111561012657600080fd5b8035906020019184600183028401116401000000008311171561014857600080fd5b91908080601f016020809104026020016040519081016040528093929190818152602001838380828437600081840152601f19601f820116905080830192505050505050509192919290803590602001906401000000008111156101ab57600080fd5b8201836020820111156101bd57600080fd5b803590602001918460018302840111640100000000831117156101df57600080fd5b91908080601f016020809104026020016040519081016040528093929190818152602001838380828437600081840152601f19601f8201169050808301925050505050505091929192908035906020019064010000000081111561024257600080fd5b82018360208201111561025457600080fd5b8035906020019184600183028401116401000000008311171561027657600080fd5b91908080601f016020809104026020016040519081016040528093929190818152602001838380828437600081840152601f19601f820116905080830192505050505050509192919290505050610923565b604051808215151515815260200191505060405180910390f35b3480156102ee57600080fd5b506103a86004803603602081101561030557600080fd5b810190808035906020019064010000000081111561032257600080fd5b82018360208201111561033457600080fd5b8035906020019184600183028401116401000000008311171561035657600080fd5b91908080601f016020809104026020016040519081016040528093929190818152602001838380828437600081840152601f19601f820116905080830192505050505050509192919290505050610aa0565b604051808215151515815260200191505060405180910390f35b3480156103ce57600080fd5b506103d7610bfb565b6040518082815260200191505060405180910390f35b3480156103f957600080fd5b506104266004803603602081101561041057600080fd5b8101908080359060200190929190505050610c01565b604051808273ffffffffffffffffffffffffffffffffffffffff1673ffffffffffffffffffffffffffffffffffffffff16815260200191505060405180910390f35b34801561047457600080fd5b506104b76004803603602081101561048b57600080fd5b81019080803573ffffffffffffffffffffffffffffffffffffffff169060200190929190505050610c3f565b604051808060200180602001838103835285818151815260200191508051906020019080838360005b838110156104fb5780820151818401526020810190506104e0565b50505050905090810190601f1680156105285780820380516001836020036101000a031916815260200191505b50838103825284818151815260200191508051906020019080838360005b83811015610561578082015181840152602081019050610546565b50505050905090810190601f16801561058e5780820380516001836020036101000a031916815260200191505b5094505050505060405180910390f35b3480156105aa57600080fd5b506105b3610e01565b6040518080602001828103825283818151815260200191508051906020019060200280838360005b838110156105f65780820151818401526020810190506105db565b505050509050019250505060405180910390f35b34801561061657600080fd5b506106576004803603606081101561062d57600080fd5b81019080803590602001909291908035906020019092919080359060200190929190505050610e8f565b604051808215151515815260200191505060405180910390f35b34801561067d57600080fd5b50610686611093565b604051808273ffffffffffffffffffffffffffffffffffffffff1673ffffffffffffffffffffffffffffffffffffffff16815260200191505060405180910390f35b3480156106d457600080fd5b506106dd6110b9565b604051808273ffffffffffffffffffffffffffffffffffffffff1673ffffffffffffffffffffffffffffffffffffffff16815260200191505060405180910390f35b34801561072b57600080fd5b5061076e6004803603602081101561074257600080fd5b81019080803573ffffffffffffffffffffffffffffffffffffffff1690602001909291905050506110df565b6040518080602001806020018060200185151515158152602001848103845288818151815260200191508051906020019080838360005b838110156107c05780820151818401526020810190506107a5565b50505050905090810190601f1680156107ed5780820380516001836020036101000a031916815260200191505b50848103835287818151815260200191508051906020019080838360005b8381101561082657808201518184015260208101905061080b565b50505050905090810190601f1680156108535780820380516001836020036101000a031916815260200191505b50848103825286818151815260200191508051906020019080838360005b8381101561088c578082015181840152602081019050610871565b50505050905090810190601f1680156108b95780820380516001836020036101000a031916815260200191505b5097505050505050505060405180910390f35b3480156108d857600080fd5b506108e16112e4565b604051808273ffffffffffffffffffffffffffffffffffffffff1673ffffffffffffffffffffffffffffffffffffffff16815260200191505060405180910390f35b600080600090506000600560003373ffffffffffffffffffffffffffffffffffffffff1673ffffffffffffffffffffffffffffffffffffffff1681526020019081526020016000209050813390806001815401808255809150509060018203906000526020600020016000909192909190916101000a81548173ffffffffffffffffffffffffffffffffffffffff021916908373ffffffffffffffffffffffffffffffffffffffff160217905550508060030160009054906101000a900460ff161515156109f057600080fd5b8673ffffffffffffffffffffffffffffffffffffffff163373ffffffffffffffffffffffffffffffffffffffff16141515610a2a57600080fd5b85816002019080519060200190610a4292919061130a565b5083816000019080519060200190610a5b92919061130a565b5084816001019080519060200190610a7492919061130a565b5060018160030160006101000a81548160ff021916908315150217905550600192505050949350505050565b600080600560003373ffffffffffffffffffffffffffffffffffffffff1673ffffffffffffffffffffffffffffffffffffffff16815260200190815260200160002090508060030160009054906101000a900460ff161515610b0157600080fd5b826040516020018082805190602001908083835b602083101515610b3a5780518252602082019150602081019050602083039250610b15565b6001836020036101000a03801982511681845116808217855250505050505090500191505060405160208183030381529060405280519060200120816002016040516020018082805460018160011615610100020316600290048015610bd75780601f10610bb5576101008083540402835291820191610bd7565b820191906000526020600020905b815481529060010190602001808311610bc3575b50509150506040516020818303038152906040528051906020012014915050919050565b60035481565b600081815481101515610c1057fe5b906000526020600020016000915054906101000a900473ffffffffffffffffffffffffffffffffffffffff1681565b606080600560008473ffffffffffffffffffffffffffffffffffffffff1673ffffffffffffffffffffffffffffffffffffffff1681526020019081526020016000206000018054600181600116156101000203166002900480601f016020809104026020016040519081016040528092919081815260200182805460018160011615610100020316600290048015610d185780601f10610ced57610100808354040283529160200191610d18565b820191906000526020600020905b815481529060010190602001808311610cfb57829003601f168201915b50505050509150600560008473ffffffffffffffffffffffffffffffffffffffff1673ffffffffffffffffffffffffffffffffffffffff1681526020019081526020016000206001018054600181600116156101000203166002900480601f016020809104026020016040519081016040528092919081815260200182805460018160011615610100020316600290048015610df55780601f10610dca57610100808354040283529160200191610df5565b820191906000526020600020905b815481529060010190602001808311610dd857829003601f168201915b50505050509050915091565b60606000805480602002602001604051908101604052809291908181526020018280548015610e8557602002820191906000526020600020905b8160009054906101000a900473ffffffffffffffffffffffffffffffffffffffff1673ffffffffffffffffffffffffffffffffffffffff1681526020019060010190808311610e3b575b5050505050905090565b60006003548210151515610ea257600080fd5b600260009054906101000a900473ffffffffffffffffffffffffffffffffffffffff1673ffffffffffffffffffffffffffffffffffffffff16639bbd06eb3033856040518463ffffffff167c0100000000000000000000000000000000000000000000000000000000028152600401808473ffffffffffffffffffffffffffffffffffffffff1673ffffffffffffffffffffffffffffffffffffffff1681526020018373ffffffffffffffffffffffffffffffffffffffff1673ffffffffffffffffffffffffffffffffffffffff1681526020018281526020019350505050602060405180830381600087803b158015610f9b57600080fd5b505af1158015610faf573d6000803e3d6000fd5b505050506040513d6020811015610fc557600080fd5b810190808051906020019092919050505050600160009054906101000a900473ffffffffffffffffffffffffffffffffffffffff1673ffffffffffffffffffffffffffffffffffffffff1663b48b111785856040518363ffffffff167c01000000000000000000000000000000000000000000000000000000000281526004018083815260200182815260200192505050600060405180830381600087803b15801561107057600080fd5b505af1158015611084573d6000803e3d6000fd5b50505050600190509392505050565b600460009054906101000a900473ffffffffffffffffffffffffffffffffffffffff1681565b600260009054906101000a900473ffffffffffffffffffffffffffffffffffffffff1681565b6005602052806000526040600020600091509050806000018054600181600116156101000203166002900480601f01602080910402602001604051908101604052809291908181526020018280546001816001161561010002031660029004801561118b5780601f106111605761010080835404028352916020019161118b565b820191906000526020600020905b81548152906001019060200180831161116e57829003601f168201915b505050505090806001018054600181600116156101000203166002900480601f0160208091040260200160405190810160405280929190818152602001828054600181600116156101000203166002900480156112295780601f106111fe57610100808354040283529160200191611229565b820191906000526020600020905b81548152906001019060200180831161120c57829003601f168201915b505050505090806002018054600181600116156101000203166002900480601f0160208091040260200160405190810160405280929190818152602001828054600181600116156101000203166002900480156112c75780601f1061129c576101008083540402835291602001916112c7565b820191906000526020600020905b8154815290600101906020018083116112aa57829003601f168201915b5050505050908060030160009054906101000a900460ff16905084565b600160009054906101000a900473ffffffffffffffffffffffffffffffffffffffff1681565b828054600181600116156101000203166002900490600052602060002090601f016020900481019282601f1061134b57805160ff1916838001178555611379565b82800160010185558215611379579182015b8281111561137857825182559160200191906001019061135d565b5b509050611386919061138a565b5090565b6113ac91905b808211156113a8576000816000905550600101611390565b5090565b9056fea165627a7a723058206ec883acda2bf6e4552171abe2e347536abd848a797fd9350ee606ff350363960029",
  "source": "pragma solidity ^0.5.0;\r\nimport './EToken.sol';\r\nimport './Houses.sol';\r\n\r\n\r\ncontract Interface {\r\n\r\n    address[] public registeredUsers;\r\n    Houses public HouseContract;\r\n    EToken public EtokenContract;\r\n    uint256 public roomPrice;\r\n    address public owner;\r\n    \r\n    struct User {\r\n        string name;\r\n        string email;\r\n        string password;\r\n        bool  registered;\r\n    }\r\n\r\n    mapping(address=>User)public Users;\r\n    constructor (Houses _HouseContract ,EToken _EtokenContract,uint256 _price) public{\r\n        HouseContract = _HouseContract;\r\n        EtokenContract =  _EtokenContract;\r\n        roomPrice = _price;\r\n    }\r\n\r\n   \r\n\r\n    function register(address _user, string memory _password,string memory _email, string memory _name)public returns(bool success) {\r\n        address[] storage registed = registeredUsers;\r\n        User storage user = Users[msg.sender];\r\n        registed.push(msg.sender);\r\n        require(!user.registered); \r\n        require(msg.sender == _user);\r\n        user.password = _password;\r\n        user.name = _name;\r\n        user.email = _email;\r\n        user.registered = true;\r\n        return true;\r\n    } \r\n\r\n     function login(string memory _password)public view returns(bool ) {\r\n        User storage user = Users[msg.sender];\r\n        require(user.registered);\r\n         return (keccak256(abi.encodePacked(user.password)) == keccak256(abi.encodePacked(_password)));\r\n         \r\n\r\n     }\r\n     function rentRoom(bytes32 _housename,uint256 _roomnumber, uint256 _amount)public returns(bool success){\r\n         require(_amount>=roomPrice);\r\n         //require(HouseContract.registeredHouses(_housename).registered);\r\n         EtokenContract.sendFromTo(address(this),msg.sender, _amount);\r\n         HouseContract.updateRentRoom(_housename,_roomnumber);\r\n         return true;\r\n     }\r\n     function usersdipslay()public view returns(address[] memory) {\r\n         return registeredUsers;\r\n     }\r\n     function userdetails(address _user)public view returns(string memory name, string memory email) {\r\n         name = Users[_user].name;\r\n         email = Users[_user].email;\r\n     }\r\n}",
  "sourcePath": "C:/Users/COLLINS/Desktop/TOKEN1/contracts/Interface.sol",
  "compiler": {
    "name": "solc",
    "version": "0.5.0+commit.1d4f565a.Emscripten.clang"
  },
  "schemaVersion": "3.0.0",
  "updatedAt": "2019-02-21T11:25:29.502Z",
  "devdoc": {
    "methods": {}
  },
  "userdoc": {
    "methods": {}
  }
}