{
  "contractName": "EToken",
  "abi": [
    {
      "constant": true,
      "inputs": [],
      "name": "name",
      "outputs": [
        {
          "name": "",
          "type": "string"
        }
      ],
      "payable": false,
      "stateMutability": "view",
      "type": "function",
      "signature": "0x06fdde03"
    },
    {
      "constant": true,
      "inputs": [],
      "name": "totalSupply",
      "outputs": [
        {
          "name": "",
          "type": "uint256"
        }
      ],
      "payable": false,
      "stateMutability": "view",
      "type": "function",
      "signature": "0x18160ddd"
    },
    {
      "constant": true,
      "inputs": [
        {
          "name": "",
          "type": "address"
        }
      ],
      "name": "balanceOf",
      "outputs": [
        {
          "name": "",
          "type": "uint256"
        }
      ],
      "payable": false,
      "stateMutability": "view",
      "type": "function",
      "signature": "0x70a08231"
    },
    {
      "constant": true,
      "inputs": [],
      "name": "symbol",
      "outputs": [
        {
          "name": "",
          "type": "string"
        }
      ],
      "payable": false,
      "stateMutability": "view",
      "type": "function",
      "signature": "0x95d89b41"
    },
    {
      "constant": true,
      "inputs": [
        {
          "name": "",
          "type": "address"
        },
        {
          "name": "",
          "type": "address"
        }
      ],
      "name": "allowance",
      "outputs": [
        {
          "name": "",
          "type": "uint256"
        }
      ],
      "payable": false,
      "stateMutability": "view",
      "type": "function",
      "signature": "0xdd62ed3e"
    },
    {
      "inputs": [
        {
          "name": "_initialSupply",
          "type": "uint256"
        }
      ],
      "payable": false,
      "stateMutability": "nonpayable",
      "type": "constructor",
      "signature": "constructor"
    },
    {
      "anonymous": false,
      "inputs": [
        {
          "indexed": true,
          "name": "_from",
          "type": "address"
        },
        {
          "indexed": true,
          "name": "_to",
          "type": "address"
        },
        {
          "indexed": false,
          "name": "_value",
          "type": "uint256"
        }
      ],
      "name": "Transfer",
      "type": "event",
      "signature": "0xddf252ad1be2c89b69c2b068fc378daa952ba7f163c4a11628f55a4df523b3ef"
    },
    {
      "anonymous": false,
      "inputs": [
        {
          "indexed": true,
          "name": "_spender",
          "type": "address"
        },
        {
          "indexed": true,
          "name": "_owner",
          "type": "address"
        },
        {
          "indexed": false,
          "name": "_value",
          "type": "uint256"
        }
      ],
      "name": "Approval",
      "type": "event",
      "signature": "0x8c5be1e5ebec7d5bd14f71427d1e84f3dd0314c0f7b2291e5b200ac8c7c3b925"
    },
    {
      "constant": true,
      "inputs": [],
      "name": "TotalSupply",
      "outputs": [
        {
          "name": "totalsupply",
          "type": "uint256"
        }
      ],
      "payable": false,
      "stateMutability": "view",
      "type": "function",
      "signature": "0xa44b47f7"
    },
    {
      "constant": true,
      "inputs": [
        {
          "name": "_owner",
          "type": "address"
        }
      ],
      "name": "BalanceOf",
      "outputs": [
        {
          "name": "balance",
          "type": "uint256"
        }
      ],
      "payable": false,
      "stateMutability": "view",
      "type": "function",
      "signature": "0xd9967889"
    },
    {
      "constant": false,
      "inputs": [
        {
          "name": "_to",
          "type": "address"
        },
        {
          "name": "_value",
          "type": "uint256"
        }
      ],
      "name": "transfer",
      "outputs": [
        {
          "name": "success",
          "type": "bool"
        }
      ],
      "payable": false,
      "stateMutability": "nonpayable",
      "type": "function",
      "signature": "0xa9059cbb"
    },
    {
      "constant": false,
      "inputs": [
        {
          "name": "_spender",
          "type": "address"
        },
        {
          "name": "_value",
          "type": "uint256"
        }
      ],
      "name": "approve",
      "outputs": [
        {
          "name": "success",
          "type": "bool"
        }
      ],
      "payable": false,
      "stateMutability": "nonpayable",
      "type": "function",
      "signature": "0x095ea7b3"
    },
    {
      "constant": false,
      "inputs": [
        {
          "name": "_from",
          "type": "address"
        },
        {
          "name": "_to",
          "type": "address"
        },
        {
          "name": "_value",
          "type": "uint256"
        }
      ],
      "name": "transferFrom",
      "outputs": [
        {
          "name": "success",
          "type": "bool"
        }
      ],
      "payable": false,
      "stateMutability": "nonpayable",
      "type": "function",
      "signature": "0x23b872dd"
    },
    {
      "constant": false,
      "inputs": [
        {
          "name": "_to",
          "type": "address"
        },
        {
          "name": "_from",
          "type": "address"
        },
        {
          "name": "_amount",
          "type": "uint256"
        }
      ],
      "name": "sendFromTo",
      "outputs": [
        {
          "name": "success",
          "type": "bool"
        }
      ],
      "payable": false,
      "stateMutability": "nonpayable",
      "type": "function",
      "signature": "0x9bbd06eb"
    }
  ],
  "bytecode": "0x60806040526040805190810160405280600681526020017f45546f6b656e00000000000000000000000000000000000000000000000000008152506000908051906020019061004f92919061012b565b506040805190810160405280600381526020017f45546b00000000000000000000000000000000000000000000000000000000008152506001908051906020019061009b92919061012b565b503480156100a857600080fd5b5060405160208062000fc5833981018060405260208110156100c957600080fd5b810190808051906020019092919050505080600360003373ffffffffffffffffffffffffffffffffffffffff1673ffffffffffffffffffffffffffffffffffffffff1681526020019081526020016000208190555080600281905550506101d0565b828054600181600116156101000203166002900490600052602060002090601f016020900481019282601f1061016c57805160ff191683800117855561019a565b8280016001018555821561019a579182015b8281111561019957825182559160200191906001019061017e565b5b5090506101a791906101ab565b5090565b6101cd91905b808211156101c95760008160009055506001016101b1565b5090565b90565b610de580620001e06000396000f3fe6080604052600436106100af576000357c0100000000000000000000000000000000000000000000000000000000900463ffffffff16806306fdde03146100b4578063095ea7b31461014457806318160ddd146101b757806323b872dd146101e257806370a082311461027557806395d89b41146102da5780639bbd06eb1461036a578063a44b47f7146103fd578063a9059cbb14610428578063d99678891461049b578063dd62ed3e14610500575b600080fd5b3480156100c057600080fd5b506100c9610585565b6040518080602001828103825283818151815260200191508051906020019080838360005b838110156101095780820151818401526020810190506100ee565b50505050905090810190601f1680156101365780820380516001836020036101000a031916815260200191505b509250505060405180910390f35b34801561015057600080fd5b5061019d6004803603604081101561016757600080fd5b81019080803573ffffffffffffffffffffffffffffffffffffffff16906020019092919080359060200190929190505050610623565b604051808215151515815260200191505060405180910390f35b3480156101c357600080fd5b506101cc610763565b6040518082815260200191505060405180910390f35b3480156101ee57600080fd5b5061025b6004803603606081101561020557600080fd5b81019080803573ffffffffffffffffffffffffffffffffffffffff169060200190929190803573ffffffffffffffffffffffffffffffffffffffff16906020019092919080359060200190929190505050610769565b604051808215151515815260200191505060405180910390f35b34801561028157600080fd5b506102c46004803603602081101561029857600080fd5b81019080803573ffffffffffffffffffffffffffffffffffffffff1690602001909291905050506109d8565b6040518082815260200191505060405180910390f35b3480156102e657600080fd5b506102ef6109f0565b6040518080602001828103825283818151815260200191508051906020019080838360005b8381101561032f578082015181840152602081019050610314565b50505050905090810190601f16801561035c5780820380516001836020036101000a031916815260200191505b509250505060405180910390f35b34801561037657600080fd5b506103e36004803603606081101561038d57600080fd5b81019080803573ffffffffffffffffffffffffffffffffffffffff169060200190929190803573ffffffffffffffffffffffffffffffffffffffff16906020019092919080359060200190929190505050610a8e565b604051808215151515815260200191505060405180910390f35b34801561040957600080fd5b50610412610be8565b6040518082815260200191505060405180910390f35b34801561043457600080fd5b506104816004803603604081101561044b57600080fd5b81019080803573ffffffffffffffffffffffffffffffffffffffff16906020019092919080359060200190929190505050610bf2565b604051808215151515815260200191505060405180910390f35b3480156104a757600080fd5b506104ea600480360360208110156104be57600080fd5b81019080803573ffffffffffffffffffffffffffffffffffffffff169060200190929190505050610d4b565b6040518082815260200191505060405180910390f35b34801561050c57600080fd5b5061056f6004803603604081101561052357600080fd5b81019080803573ffffffffffffffffffffffffffffffffffffffff169060200190929190803573ffffffffffffffffffffffffffffffffffffffff169060200190929190505050610d94565b6040518082815260200191505060405180910390f35b60008054600181600116156101000203166002900480601f01602080910402602001604051908101604052809291908181526020018280546001816001161561010002031660029004801561061b5780601f106105f05761010080835404028352916020019161061b565b820191906000526020600020905b8154815290600101906020018083116105fe57829003601f168201915b505050505081565b600081600360003373ffffffffffffffffffffffffffffffffffffffff1673ffffffffffffffffffffffffffffffffffffffff168152602001908152602001600020541015151561067357600080fd5b81600460003373ffffffffffffffffffffffffffffffffffffffff1673ffffffffffffffffffffffffffffffffffffffff16815260200190815260200160002060008573ffffffffffffffffffffffffffffffffffffffff1673ffffffffffffffffffffffffffffffffffffffff168152602001908152602001600020819055503373ffffffffffffffffffffffffffffffffffffffff168373ffffffffffffffffffffffffffffffffffffffff167f8c5be1e5ebec7d5bd14f71427d1e84f3dd0314c0f7b2291e5b200ac8c7c3b925846040518082815260200191505060405180910390a36001905092915050565b60025481565b600081600360008673ffffffffffffffffffffffffffffffffffffffff1673ffffffffffffffffffffffffffffffffffffffff16815260200190815260200160002054101515156107b957600080fd5b81600460008673ffffffffffffffffffffffffffffffffffffffff1673ffffffffffffffffffffffffffffffffffffffff16815260200190815260200160002060003373ffffffffffffffffffffffffffffffffffffffff1673ffffffffffffffffffffffffffffffffffffffff168152602001908152602001600020541015151561084457600080fd5b81600360008673ffffffffffffffffffffffffffffffffffffffff1673ffffffffffffffffffffffffffffffffffffffff1681526020019081526020016000206000828254039250508190555081600360008573ffffffffffffffffffffffffffffffffffffffff1673ffffffffffffffffffffffffffffffffffffffff1681526020019081526020016000206000828254019250508190555081600460008673ffffffffffffffffffffffffffffffffffffffff1673ffffffffffffffffffffffffffffffffffffffff16815260200190815260200160002060003373ffffffffffffffffffffffffffffffffffffffff1673ffffffffffffffffffffffffffffffffffffffff168152602001908152602001600020600082825403925050819055508273ffffffffffffffffffffffffffffffffffffffff168473ffffffffffffffffffffffffffffffffffffffff167fddf252ad1be2c89b69c2b068fc378daa952ba7f163c4a11628f55a4df523b3ef846040518082815260200191505060405180910390a3600190509392505050565b60036020528060005260406000206000915090505481565b60018054600181600116156101000203166002900480601f016020809104026020016040519081016040528092919081815260200182805460018160011615610100020316600290048015610a865780601f10610a5b57610100808354040283529160200191610a86565b820191906000526020600020905b815481529060010190602001808311610a6957829003601f168201915b505050505081565b600081600360008573ffffffffffffffffffffffffffffffffffffffff1673ffffffffffffffffffffffffffffffffffffffff1681526020019081526020016000205410151515610ade57600080fd5b81600360008573ffffffffffffffffffffffffffffffffffffffff1673ffffffffffffffffffffffffffffffffffffffff1681526020019081526020016000206000828254039250508190555081600360008673ffffffffffffffffffffffffffffffffffffffff1673ffffffffffffffffffffffffffffffffffffffff168152602001908152602001600020600082825401925050819055508373ffffffffffffffffffffffffffffffffffffffff168373ffffffffffffffffffffffffffffffffffffffff167fddf252ad1be2c89b69c2b068fc378daa952ba7f163c4a11628f55a4df523b3ef846040518082815260200191505060405180910390a3600190509392505050565b6000600254905090565b600081600360003373ffffffffffffffffffffffffffffffffffffffff1673ffffffffffffffffffffffffffffffffffffffff1681526020019081526020016000205410151515610c4257600080fd5b81600360003373ffffffffffffffffffffffffffffffffffffffff1673ffffffffffffffffffffffffffffffffffffffff1681526020019081526020016000206000828254039250508190555081600360008573ffffffffffffffffffffffffffffffffffffffff1673ffffffffffffffffffffffffffffffffffffffff168152602001908152602001600020600082825401925050819055508273ffffffffffffffffffffffffffffffffffffffff163373ffffffffffffffffffffffffffffffffffffffff167fddf252ad1be2c89b69c2b068fc378daa952ba7f163c4a11628f55a4df523b3ef846040518082815260200191505060405180910390a36001905092915050565b6000600360008373ffffffffffffffffffffffffffffffffffffffff1673ffffffffffffffffffffffffffffffffffffffff168152602001908152602001600020549050919050565b600460205281600052604060002060205280600052604060002060009150915050548156fea165627a7a72305820dcf68f947e8a7d8618122fa6fa1a44f0bbab3ae0e6a9050e47182fc976d187c90029",
  "source": "pragma solidity ^0.5.0;\r\n\r\ncontract EToken {\r\n    string public name = \"EToken\";\r\n    string public symbol = \"ETk\";\r\n    uint256 public totalSupply ; \r\n\r\n    mapping(address =>uint256)public balanceOf;\r\n\r\n    mapping(address=>mapping(address=>uint256))public allowance;\r\n\r\n    event Transfer(\r\n        address indexed _from,\r\n        address indexed _to,\r\n        uint256 _value\r\n    );\r\n\r\n    event Approval(\r\n        address indexed _spender,\r\n        address indexed _owner,\r\n        uint256 _value\r\n    );\r\n\r\n    constructor (uint256 _initialSupply) public {\r\n      balanceOf[msg.sender] = _initialSupply;\r\n      totalSupply = _initialSupply;\r\n    }\r\n\r\n    function TotalSupply() public view returns (uint256 totalsupply) {\r\n        return totalSupply ;\r\n    }\r\n\r\n    function BalanceOf(address _owner)public view  returns (uint256 balance) {\r\n        return balanceOf[_owner];      \r\n    }\r\n\r\n    function transfer(address _to,uint256 _value)public  returns(bool success) {\r\n        require(balanceOf[msg.sender]>= _value);\r\n        balanceOf[msg.sender] -= _value;\r\n        balanceOf[_to] += _value;\r\n        \r\n        emit Transfer(msg.sender,_to,_value);\r\n        return true;\r\n    }\r\n\r\n    function approve(address _spender, uint256 _value) public returns(bool success)  {\r\n        require(balanceOf[msg.sender] >= _value);\r\n        allowance[msg.sender][_spender] = _value;\r\n        \r\n        emit Approval(_spender,msg.sender,_value);\r\n        return true;\r\n    }\r\n\r\n    function transferFrom(address _from,address _to,uint256 _value ) public returns (bool success) {\r\n        require(balanceOf[_from]>=_value);\r\n        require(allowance[_from][msg.sender] >=_value);\r\n        balanceOf[_from] -=_value;\r\n        balanceOf[_to] +=_value;\r\n        allowance[_from][msg.sender] -= _value;\r\n\r\n        emit Transfer(_from,_to,_value);\r\n\r\n        return true;\r\n    }\r\n    function sendFromTo(address _to,address _from,uint256 _amount)external  returns (bool success) {\r\n        require(balanceOf[_from]>=_amount);\r\n        balanceOf[_from] -= _amount;\r\n        balanceOf[_to] += _amount;\r\n        \r\n        emit Transfer(_from,_to,_amount);\r\n        return true;\r\n\r\n    }\r\n\r\n}",
  "sourcePath": "C:\\Users\\COLLINS\\Desktop\\TOKEN1\\contracts\\EToken.sol",
  "compiler": {
    "name": "solc",
    "version": "0.5.0+commit.1d4f565a.Emscripten.clang"
  },
  "schemaVersion": "3.0.0",
  "updatedAt": "2019-02-21T11:25:29.532Z",
  "devdoc": {
    "methods": {}
  },
  "userdoc": {
    "methods": {}
  }
}