{
  "contractName": "Houses",
  "abi": [
    {
      "constant": true,
      "inputs": [
        {
          "name": "",
          "type": "address"
        },
        {
          "name": "",
          "type": "uint256"
        }
      ],
      "name": "ownerHouse",
      "outputs": [
        {
          "name": "",
          "type": "bytes32"
        }
      ],
      "payable": false,
      "stateMutability": "view",
      "type": "function",
      "signature": "0x0f6f90f2"
    },
    {
      "constant": true,
      "inputs": [
        {
          "name": "",
          "type": "bytes32"
        },
        {
          "name": "",
          "type": "uint256"
        }
      ],
      "name": "registeredRooms",
      "outputs": [
        {
          "name": "registered",
          "type": "bool"
        },
        {
          "name": "facilities",
          "type": "string"
        },
        {
          "name": "name",
          "type": "string"
        },
        {
          "name": "rented",
          "type": "bool"
        }
      ],
      "payable": false,
      "stateMutability": "view",
      "type": "function",
      "signature": "0x614ffcb3"
    },
    {
      "constant": true,
      "inputs": [
        {
          "name": "",
          "type": "uint256"
        }
      ],
      "name": "houseNames",
      "outputs": [
        {
          "name": "",
          "type": "bytes32"
        }
      ],
      "payable": false,
      "stateMutability": "view",
      "type": "function",
      "signature": "0x6ddf331a"
    },
    {
      "constant": true,
      "inputs": [
        {
          "name": "",
          "type": "bytes32"
        }
      ],
      "name": "registeredHouses",
      "outputs": [
        {
          "name": "registered",
          "type": "bool"
        },
        {
          "name": "owneradd",
          "type": "address"
        },
        {
          "name": "location",
          "type": "string"
        },
        {
          "name": "owner",
          "type": "string"
        },
        {
          "name": "company",
          "type": "string"
        }
      ],
      "payable": false,
      "stateMutability": "view",
      "type": "function",
      "signature": "0xd8088fbb"
    },
    {
      "constant": false,
      "inputs": [
        {
          "name": "_housename",
          "type": "bytes32"
        },
        {
          "name": "_location",
          "type": "string"
        },
        {
          "name": "_owner",
          "type": "string"
        },
        {
          "name": "_company",
          "type": "string"
        }
      ],
      "name": "registerHouse",
      "outputs": [
        {
          "name": "success",
          "type": "bool"
        }
      ],
      "payable": false,
      "stateMutability": "nonpayable",
      "type": "function",
      "signature": "0xb46ff3d3"
    },
    {
      "constant": false,
      "inputs": [
        {
          "name": "_housename",
          "type": "bytes32"
        },
        {
          "name": "_roomnumber",
          "type": "uint256"
        },
        {
          "name": "_facilities",
          "type": "string"
        },
        {
          "name": "_name",
          "type": "string"
        }
      ],
      "name": "registerRoom",
      "outputs": [
        {
          "name": "success",
          "type": "bool"
        }
      ],
      "payable": false,
      "stateMutability": "nonpayable",
      "type": "function",
      "signature": "0x97a59488"
    },
    {
      "constant": false,
      "inputs": [
        {
          "name": "_housename",
          "type": "bytes32"
        },
        {
          "name": "_roomnumber",
          "type": "uint256"
        }
      ],
      "name": "updateRentRoom",
      "outputs": [],
      "payable": false,
      "stateMutability": "nonpayable",
      "type": "function",
      "signature": "0xb48b1117"
    },
    {
      "constant": false,
      "inputs": [
        {
          "name": "_housename",
          "type": "bytes32"
        },
        {
          "name": "_roomnumber",
          "type": "uint256"
        }
      ],
      "name": "checkOut",
      "outputs": [],
      "payable": false,
      "stateMutability": "nonpayable",
      "type": "function",
      "signature": "0xc40cb8f7"
    },
    {
      "constant": true,
      "inputs": [],
      "name": "registeredhouses",
      "outputs": [
        {
          "name": "",
          "type": "bytes32[]"
        }
      ],
      "payable": false,
      "stateMutability": "view",
      "type": "function",
      "signature": "0xd6536896"
    },
    {
      "constant": true,
      "inputs": [
        {
          "name": "_housename",
          "type": "bytes32"
        }
      ],
      "name": "registeredhousesRooms",
      "outputs": [
        {
          "name": "",
          "type": "uint256[]"
        }
      ],
      "payable": false,
      "stateMutability": "view",
      "type": "function",
      "signature": "0x1ea690dd"
    }
  ],
  "bytecode": "0x608060405234801561001057600080fd5b5061127c806100206000396000f3fe6080604052600436106100a4576000357c0100000000000000000000000000000000000000000000000000000000900463ffffffff1680630f6f90f2146100a95780631ea690dd14610118578063614ffcb3146101a85780636ddf331a146102e857806397a5948814610337578063b46ff3d3146104c2578063b48b1117146106da578063c40cb8f71461071f578063d653689614610764578063d8088fbb146107d0575b600080fd5b3480156100b557600080fd5b50610102600480360360408110156100cc57600080fd5b81019080803573ffffffffffffffffffffffffffffffffffffffff1690602001909291908035906020019092919050505061099a565b6040518082815260200191505060405180910390f35b34801561012457600080fd5b506101516004803603602081101561013b57600080fd5b81019080803590602001909291905050506109ca565b6040518080602001828103825283818151815260200191508051906020019060200280838360005b83811015610194578082015181840152602081019050610179565b505050509050019250505060405180910390f35b3480156101b457600080fd5b506101eb600480360360408110156101cb57600080fd5b810190808035906020019092919080359060200190929190505050610a38565b6040518085151515158152602001806020018060200184151515158152602001838103835286818151815260200191508051906020019080838360005b83811015610243578082015181840152602081019050610228565b50505050905090810190601f1680156102705780820380516001836020036101000a031916815260200191505b50838103825285818151815260200191508051906020019080838360005b838110156102a957808201518184015260208101905061028e565b50505050905090810190601f1680156102d65780820380516001836020036101000a031916815260200191505b50965050505050505060405180910390f35b3480156102f457600080fd5b506103216004803603602081101561030b57600080fd5b8101908080359060200190929190505050610bbf565b6040518082815260200191505060405180910390f35b34801561034357600080fd5b506104a86004803603608081101561035a57600080fd5b8101908080359060200190929190803590602001909291908035906020019064010000000081111561038b57600080fd5b82018360208201111561039d57600080fd5b803590602001918460018302840111640100000000831117156103bf57600080fd5b91908080601f016020809104026020016040519081016040528093929190818152602001838380828437600081840152601f19601f8201169050808301925050505050505091929192908035906020019064010000000081111561042257600080fd5b82018360208201111561043457600080fd5b8035906020019184600183028401116401000000008311171561045657600080fd5b91908080601f016020809104026020016040519081016040528093929190818152602001838380828437600081840152601f19601f820116905080830192505050505050509192919290505050610be2565b604051808215151515815260200191505060405180910390f35b3480156104ce57600080fd5b506106c0600480360360808110156104e557600080fd5b81019080803590602001909291908035906020019064010000000081111561050c57600080fd5b82018360208201111561051e57600080fd5b8035906020019184600183028401116401000000008311171561054057600080fd5b91908080601f016020809104026020016040519081016040528093929190818152602001838380828437600081840152601f19601f820116905080830192505050505050509192919290803590602001906401000000008111156105a357600080fd5b8201836020820111156105b557600080fd5b803590602001918460018302840111640100000000831117156105d757600080fd5b91908080601f016020809104026020016040519081016040528093929190818152602001838380828437600081840152601f19601f8201169050808301925050505050505091929192908035906020019064010000000081111561063a57600080fd5b82018360208201111561064c57600080fd5b8035906020019184600183028401116401000000008311171561066e57600080fd5b91908080601f016020809104026020016040519081016040528093929190818152602001838380828437600081840152601f19601f820116905080830192505050505050509192919290505050610d23565b604051808215151515815260200191505060405180910390f35b3480156106e657600080fd5b5061071d600480360360408110156106fd57600080fd5b810190808035906020019092919080359060200190929190505050610e94565b005b34801561072b57600080fd5b506107626004803603604081101561074257600080fd5b810190808035906020019092919080359060200190929190505050610ede565b005b34801561077057600080fd5b50610779610f28565b6040518080602001828103825283818151815260200191508051906020019060200280838360005b838110156107bc5780820151818401526020810190506107a1565b505050509050019250505060405180910390f35b3480156107dc57600080fd5b50610809600480360360208110156107f357600080fd5b8101908080359060200190929190505050610f80565b60405180861515151581526020018573ffffffffffffffffffffffffffffffffffffffff1673ffffffffffffffffffffffffffffffffffffffff168152602001806020018060200180602001848103845287818151815260200191508051906020019080838360005b8381101561088d578082015181840152602081019050610872565b50505050905090810190601f1680156108ba5780820380516001836020036101000a031916815260200191505b50848103835286818151815260200191508051906020019080838360005b838110156108f35780820151818401526020810190506108d8565b50505050905090810190601f1680156109205780820380516001836020036101000a031916815260200191505b50848103825285818151815260200191508051906020019080838360005b8381101561095957808201518184015260208101905061093e565b50505050905090810190601f1680156109865780820380516001836020036101000a031916815260200191505b509850505050505050505060405180910390f35b6003602052816000526040600020818154811015156109b557fe5b90600052602060002001600091509150505481565b606060016000838152602001908152602001600020600401805480602002602001604051908101604052809291908181526020018280548015610a2c57602002820191906000526020600020905b815481526020019060010190808311610a18575b50505050509050919050565b6002602052816000526040600020602052806000526040600020600091509150508060000160009054906101000a900460ff1690806001018054600181600116156101000203166002900480601f016020809104026020016040519081016040528092919081815260200182805460018160011615610100020316600290048015610b045780601f10610ad957610100808354040283529160200191610b04565b820191906000526020600020905b815481529060010190602001808311610ae757829003601f168201915b505050505090806002018054600181600116156101000203166002900480601f016020809104026020016040519081016040528092919081815260200182805460018160011615610100020316600290048015610ba25780601f10610b7757610100808354040283529160200191610ba2565b820191906000526020600020905b815481529060010190602001808311610b8557829003601f168201915b5050505050908060030160009054906101000a900460ff16905084565b600081815481101515610bce57fe5b906000526020600020016000915090505481565b6000806002600087815260200190815260200160002060008681526020019081526020016000209050600060016000888152602001908152602001600020905060006001600089815260200190815260200160002060040190503373ffffffffffffffffffffffffffffffffffffffff168260000160019054906101000a900473ffffffffffffffffffffffffffffffffffffffff1673ffffffffffffffffffffffffffffffffffffffff16141515610c9a57600080fd5b85836001019080519060200190610cb29291906111ab565b5084836002019080519060200190610ccb9291906111ab565b5060018360000160006101000a81548160ff0219169083151502179055508087908060018154018082558091505090600182039060005260206000200160009091929091909150555060019350505050949350505050565b6000806000905060006001600088815260200190815260200160002090506000600360003373ffffffffffffffffffffffffffffffffffffffff1673ffffffffffffffffffffffffffffffffffffffff1681526020019081526020016000209050338260000160016101000a81548173ffffffffffffffffffffffffffffffffffffffff021916908373ffffffffffffffffffffffffffffffffffffffff16021790555086826001019080519060200190610ddf9291906111ab565b5085826002019080519060200190610df89291906111ab565b5084826003019080519060200190610e119291906111ab565b5060018260000160006101000a81548160ff021916908315150217905550828890806001815401808255809150509060018203906000526020600020016000909192909190915055508088908060018154018082558091505090600182039060005260206000200160009091929091909150555060019350505050949350505050565b6000600260008481526020019081526020016000206000838152602001908152602001600020905060018160030160006101000a81548160ff021916908315150217905550505050565b6000600260008481526020019081526020016000206000838152602001908152602001600020905060008160030160006101000a81548160ff021916908315150217905550505050565b60606000805480602002602001604051908101604052809291908181526020018280548015610f7657602002820191906000526020600020905b815481526020019060010190808311610f62575b5050505050905090565b60016020528060005260406000206000915090508060000160009054906101000a900460ff16908060000160019054906101000a900473ffffffffffffffffffffffffffffffffffffffff1690806001018054600181600116156101000203166002900480601f0160208091040260200160405190810160405280929190818152602001828054600181600116156101000203166002900480156110655780601f1061103a57610100808354040283529160200191611065565b820191906000526020600020905b81548152906001019060200180831161104857829003601f168201915b505050505090806002018054600181600116156101000203166002900480601f0160208091040260200160405190810160405280929190818152602001828054600181600116156101000203166002900480156111035780601f106110d857610100808354040283529160200191611103565b820191906000526020600020905b8154815290600101906020018083116110e657829003601f168201915b505050505090806003018054600181600116156101000203166002900480601f0160208091040260200160405190810160405280929190818152602001828054600181600116156101000203166002900480156111a15780601f10611176576101008083540402835291602001916111a1565b820191906000526020600020905b81548152906001019060200180831161118457829003601f168201915b5050505050905085565b828054600181600116156101000203166002900490600052602060002090601f016020900481019282601f106111ec57805160ff191683800117855561121a565b8280016001018555821561121a579182015b828111156112195782518255916020019190600101906111fe565b5b509050611227919061122b565b5090565b61124d91905b80821115611249576000816000905550600101611231565b5090565b9056fea165627a7a7230582018ecafc483c5977dbab297801e0be06b73e5dccf2c72f54f2d5ff522b94861470029",
  "source": "pragma solidity ^0.5.0;\r\n\r\ncontract Houses {\r\n    struct House {\r\n        bool registered;\r\n        address owneradd;\r\n        string location;\r\n        string owner;\r\n        string company;\r\n        uint256[] rooms;\r\n    }\r\n    bytes32[] public  houseNames;\r\n     mapping(bytes32=>House)public registeredHouses;\r\n     mapping(bytes32=>mapping(uint256=>Rooms)) public registeredRooms;\r\n     mapping(address=>bytes32[])public ownerHouse;\r\n\r\n    struct Rooms {\r\n        bool registered;\r\n        string facilities;\r\n        string name;\r\n        bool rented;\r\n    }\r\n\r\n    function registerHouse(bytes32   _housename, string memory _location, string memory _owner,string memory _company) public returns(bool success) {\r\n            bytes32[] storage housen = houseNames;   \r\n            House storage house = registeredHouses[_housename];\r\n            bytes32[] storage ownerh = ownerHouse[msg.sender];\r\n            house.owneradd = msg.sender;\r\n            house.location = _location;\r\n            house.owner = _owner;\r\n            house.company = _company;\r\n            house.registered = true; \r\n            housen.push(_housename);\r\n            ownerh.push(_housename);\r\n            return true;\r\n        \r\n    }\r\n\r\n    function registerRoom( bytes32  _housename, uint256 _roomnumber, string memory _facilities,string memory _name)public returns(bool success) {\r\n        Rooms storage room = registeredRooms[_housename][_roomnumber];\r\n        House storage house = registeredHouses[_housename];\r\n        uint256[] storage houseroom = registeredHouses[_housename].rooms;\r\n        require(house.owneradd == msg.sender);\r\n        room.facilities = _facilities;\r\n        room.name = _name;\r\n        room.registered = true;\r\n        houseroom.push(_roomnumber);\r\n        return true;\r\n    }\r\n    function updateRentRoom(bytes32 _housename, uint256 _roomnumber)public {\r\n         Rooms storage room = registeredRooms[_housename][_roomnumber];\r\n         room.rented = true;\r\n    }\r\n    function checkOut(bytes32  _housename, uint256 _roomnumber)public {\r\n        Rooms storage room = registeredRooms[_housename][_roomnumber];\r\n         room.rented = false;\r\n\r\n    }\r\n    function  registeredhouses()public view returns(bytes32[] memory) {\r\n           // for (uint8 i = 1; i < houseNames.length; i++) {\r\n                    return houseNames;\r\n          //  }\r\n    }\r\n    function registeredhousesRooms(bytes32 _housename) public view returns(uint256[] memory) {\r\n        return  registeredHouses[_housename].rooms;\r\n    }\r\n}",
  "sourcePath": "C:\\Users\\COLLINS\\Desktop\\TOKEN1\\contracts\\Houses.sol",
  "compiler": {
    "name": "solc",
    "version": "0.5.0+commit.1d4f565a.Emscripten.clang"
  },
  "schemaVersion": "3.0.0",
  "updatedAt": "2019-02-21T11:25:29.520Z",
  "devdoc": {
    "methods": {}
  },
  "userdoc": {
    "methods": {}
  }
}