{
  "contractName": "Interface",
  "abi": [
    {
      "constant": true,
      "inputs": [],
      "name": "roomPrice",
      "outputs": [
        {
          "name": "",
          "type": "uint256"
        }
      ],
      "payable": false,
      "stateMutability": "view",
      "type": "function"
    },
    {
      "constant": true,
      "inputs": [
        {
          "name": "",
          "type": "uint256"
        }
      ],
      "name": "registeredUsers",
      "outputs": [
        {
          "name": "",
          "type": "address"
        }
      ],
      "payable": false,
      "stateMutability": "view",
      "type": "function"
    },
    {
      "constant": true,
      "inputs": [],
      "name": "EtokenContract",
      "outputs": [
        {
          "name": "",
          "type": "address"
        }
      ],
      "payable": false,
      "stateMutability": "view",
      "type": "function"
    },
    {
      "constant": true,
      "inputs": [
        {
          "name": "",
          "type": "address"
        }
      ],
      "name": "Users",
      "outputs": [
        {
          "name": "name",
          "type": "string"
        },
        {
          "name": "email",
          "type": "string"
        },
        {
          "name": "password",
          "type": "string"
        },
        {
          "name": "registered",
          "type": "bool"
        }
      ],
      "payable": false,
      "stateMutability": "view",
      "type": "function"
    },
    {
      "constant": true,
      "inputs": [],
      "name": "HouseContract",
      "outputs": [
        {
          "name": "",
          "type": "address"
        }
      ],
      "payable": false,
      "stateMutability": "view",
      "type": "function"
    },
    {
      "inputs": [
        {
          "name": "_HouseContract",
          "type": "address"
        },
        {
          "name": "_EtokenContract",
          "type": "address"
        },
        {
          "name": "_price",
          "type": "uint256"
        }
      ],
      "payable": false,
      "stateMutability": "nonpayable",
      "type": "constructor"
    },
    {
      "constant": false,
      "inputs": [
        {
          "name": "_user",
          "type": "address"
        },
        {
          "name": "_password",
          "type": "string"
        },
        {
          "name": "_email",
          "type": "string"
        },
        {
          "name": "_name",
          "type": "string"
        }
      ],
      "name": "register",
      "outputs": [
        {
          "name": "success",
          "type": "bool"
        }
      ],
      "payable": false,
      "stateMutability": "nonpayable",
      "type": "function"
    },
    {
      "constant": true,
      "inputs": [
        {
          "name": "_password",
          "type": "string"
        }
      ],
      "name": "login",
      "outputs": [
        {
          "name": "",
          "type": "bool"
        }
      ],
      "payable": false,
      "stateMutability": "view",
      "type": "function"
    },
    {
      "constant": false,
      "inputs": [
        {
          "name": "_housename",
          "type": "bytes32"
        },
        {
          "name": "_roomnumber",
          "type": "uint256"
        },
        {
          "name": "_amount",
          "type": "uint256"
        }
      ],
      "name": "rentRoom",
      "outputs": [
        {
          "name": "success",
          "type": "bool"
        }
      ],
      "payable": false,
      "stateMutability": "nonpayable",
      "type": "function"
    },
    {
      "constant": true,
      "inputs": [],
      "name": "usersdipslay",
      "outputs": [
        {
          "name": "",
          "type": "address[]"
        }
      ],
      "payable": false,
      "stateMutability": "view",
      "type": "function"
    }
  ],
  "bytecode": "0x608060405234801561001057600080fd5b506040516060806111408339810180604052606081101561003057600080fd5b8101908080519060200190929190805190602001909291908051906020019092919050505082600160006101000a81548173ffffffffffffffffffffffffffffffffffffffff021916908373ffffffffffffffffffffffffffffffffffffffff16021790555081600260006101000a81548173ffffffffffffffffffffffffffffffffffffffff021916908373ffffffffffffffffffffffffffffffffffffffff16021790555080600381905550505050611050806100f06000396000f3fe608060405260043610610099576000357c0100000000000000000000000000000000000000000000000000000000900463ffffffff168063063d93d81461009e5780633a7d280c146102cc5780636c036162146103ac5780637259e0f8146103d757806383a251ad1461045257806387f1cc81146104be5780639255d1e61461052557806399b956a01461057c578063bf65661414610729575b600080fd5b3480156100aa57600080fd5b506102b2600480360360808110156100c157600080fd5b81019080803573ffffffffffffffffffffffffffffffffffffffff169060200190929190803590602001906401000000008111156100fe57600080fd5b82018360208201111561011057600080fd5b8035906020019184600183028401116401000000008311171561013257600080fd5b91908080601f016020809104026020016040519081016040528093929190818152602001838380828437600081840152601f19601f8201169050808301925050505050505091929192908035906020019064010000000081111561019557600080fd5b8201836020820111156101a757600080fd5b803590602001918460018302840111640100000000831117156101c957600080fd5b91908080601f016020809104026020016040519081016040528093929190818152602001838380828437600081840152601f19601f8201169050808301925050505050505091929192908035906020019064010000000081111561022c57600080fd5b82018360208201111561023e57600080fd5b8035906020019184600183028401116401000000008311171561026057600080fd5b91908080601f016020809104026020016040519081016040528093929190818152602001838380828437600081840152601f19601f820116905080830192505050505050509192919290505050610780565b604051808215151515815260200191505060405180910390f35b3480156102d857600080fd5b50610392600480360360208110156102ef57600080fd5b810190808035906020019064010000000081111561030c57600080fd5b82018360208201111561031e57600080fd5b8035906020019184600183028401116401000000008311171561034057600080fd5b91908080601f016020809104026020016040519081016040528093929190818152602001838380828437600081840152601f19601f8201169050808301925050505050505091929192905050506108fd565b604051808215151515815260200191505060405180910390f35b3480156103b857600080fd5b506103c1610a58565b6040518082815260200191505060405180910390f35b3480156103e357600080fd5b50610410600480360360208110156103fa57600080fd5b8101908080359060200190929190505050610a5e565b604051808273ffffffffffffffffffffffffffffffffffffffff1673ffffffffffffffffffffffffffffffffffffffff16815260200191505060405180910390f35b34801561045e57600080fd5b50610467610a9c565b6040518080602001828103825283818151815260200191508051906020019060200280838360005b838110156104aa57808201518184015260208101905061048f565b505050509050019250505060405180910390f35b3480156104ca57600080fd5b5061050b600480360360608110156104e157600080fd5b81019080803590602001909291908035906020019092919080359060200190929190505050610b2a565b604051808215151515815260200191505060405180910390f35b34801561053157600080fd5b5061053a610d2e565b604051808273ffffffffffffffffffffffffffffffffffffffff1673ffffffffffffffffffffffffffffffffffffffff16815260200191505060405180910390f35b34801561058857600080fd5b506105cb6004803603602081101561059f57600080fd5b81019080803573ffffffffffffffffffffffffffffffffffffffff169060200190929190505050610d54565b6040518080602001806020018060200185151515158152602001848103845288818151815260200191508051906020019080838360005b8381101561061d578082015181840152602081019050610602565b50505050905090810190601f16801561064a5780820380516001836020036101000a031916815260200191505b50848103835287818151815260200191508051906020019080838360005b83811015610683578082015181840152602081019050610668565b50505050905090810190601f1680156106b05780820380516001836020036101000a031916815260200191505b50848103825286818151815260200191508051906020019080838360005b838110156106e95780820151818401526020810190506106ce565b50505050905090810190601f1680156107165780820380516001836020036101000a031916815260200191505b5097505050505050505060405180910390f35b34801561073557600080fd5b5061073e610f59565b604051808273ffffffffffffffffffffffffffffffffffffffff1673ffffffffffffffffffffffffffffffffffffffff16815260200191505060405180910390f35b600080600090506000600560003373ffffffffffffffffffffffffffffffffffffffff1673ffffffffffffffffffffffffffffffffffffffff1681526020019081526020016000209050813390806001815401808255809150509060018203906000526020600020016000909192909190916101000a81548173ffffffffffffffffffffffffffffffffffffffff021916908373ffffffffffffffffffffffffffffffffffffffff160217905550508060030160009054906101000a900460ff1615151561084d57600080fd5b8673ffffffffffffffffffffffffffffffffffffffff163373ffffffffffffffffffffffffffffffffffffffff1614151561088757600080fd5b8581600201908051906020019061089f929190610f7f565b50838160000190805190602001906108b8929190610f7f565b50848160010190805190602001906108d1929190610f7f565b5060018160030160006101000a81548160ff021916908315150217905550600192505050949350505050565b600080600560003373ffffffffffffffffffffffffffffffffffffffff1673ffffffffffffffffffffffffffffffffffffffff16815260200190815260200160002090508060030160009054906101000a900460ff16151561095e57600080fd5b826040516020018082805190602001908083835b6020831015156109975780518252602082019150602081019050602083039250610972565b6001836020036101000a03801982511681845116808217855250505050505090500191505060405160208183030381529060405280519060200120816002016040516020018082805460018160011615610100020316600290048015610a345780601f10610a12576101008083540402835291820191610a34565b820191906000526020600020905b815481529060010190602001808311610a20575b50509150506040516020818303038152906040528051906020012014915050919050565b60035481565b600081815481101515610a6d57fe5b906000526020600020016000915054906101000a900473ffffffffffffffffffffffffffffffffffffffff1681565b60606000805480602002602001604051908101604052809291908181526020018280548015610b2057602002820191906000526020600020905b8160009054906101000a900473ffffffffffffffffffffffffffffffffffffffff1673ffffffffffffffffffffffffffffffffffffffff1681526020019060010190808311610ad6575b5050505050905090565b60006003548210151515610b3d57600080fd5b600260009054906101000a900473ffffffffffffffffffffffffffffffffffffffff1673ffffffffffffffffffffffffffffffffffffffff16639bbd06eb3033856040518463ffffffff167c0100000000000000000000000000000000000000000000000000000000028152600401808473ffffffffffffffffffffffffffffffffffffffff1673ffffffffffffffffffffffffffffffffffffffff1681526020018373ffffffffffffffffffffffffffffffffffffffff1673ffffffffffffffffffffffffffffffffffffffff1681526020018281526020019350505050602060405180830381600087803b158015610c3657600080fd5b505af1158015610c4a573d6000803e3d6000fd5b505050506040513d6020811015610c6057600080fd5b810190808051906020019092919050505050600160009054906101000a900473ffffffffffffffffffffffffffffffffffffffff1673ffffffffffffffffffffffffffffffffffffffff1663b48b111785856040518363ffffffff167c01000000000000000000000000000000000000000000000000000000000281526004018083815260200182815260200192505050600060405180830381600087803b158015610d0b57600080fd5b505af1158015610d1f573d6000803e3d6000fd5b50505050600190509392505050565b600260009054906101000a900473ffffffffffffffffffffffffffffffffffffffff1681565b6005602052806000526040600020600091509050806000018054600181600116156101000203166002900480601f016020809104026020016040519081016040528092919081815260200182805460018160011615610100020316600290048015610e005780601f10610dd557610100808354040283529160200191610e00565b820191906000526020600020905b815481529060010190602001808311610de357829003601f168201915b505050505090806001018054600181600116156101000203166002900480601f016020809104026020016040519081016040528092919081815260200182805460018160011615610100020316600290048015610e9e5780601f10610e7357610100808354040283529160200191610e9e565b820191906000526020600020905b815481529060010190602001808311610e8157829003601f168201915b505050505090806002018054600181600116156101000203166002900480601f016020809104026020016040519081016040528092919081815260200182805460018160011615610100020316600290048015610f3c5780601f10610f1157610100808354040283529160200191610f3c565b820191906000526020600020905b815481529060010190602001808311610f1f57829003601f168201915b5050505050908060030160009054906101000a900460ff16905084565b600160009054906101000a900473ffffffffffffffffffffffffffffffffffffffff1681565b828054600181600116156101000203166002900490600052602060002090601f016020900481019282601f10610fc057805160ff1916838001178555610fee565b82800160010185558215610fee579182015b82811115610fed578251825591602001919060010190610fd2565b5b509050610ffb9190610fff565b5090565b61102191905b8082111561101d576000816000905550600101611005565b5090565b9056fea165627a7a723058203e5e7bfb6e921a530cc850677e5d4f9603bf9e8c4d756dd057d65d173678250f0029",
  "source": "pragma solidity ^0.5.0;\r\nimport './EToken.sol';\r\nimport './Houses.sol';\r\n\r\ncontract Interface {\r\n\r\n    address[] public registeredUsers;\r\n    Houses public HouseContract;\r\n    EToken public EtokenContract;\r\n    uint256 public roomPrice;\r\n    address owner;\r\n    \r\n\r\n    struct User {\r\n        string name;\r\n        string email;\r\n        string password;\r\n        bool  registered;\r\n    }\r\n\r\n    mapping(address=>User)public Users;\r\n    constructor (Houses _HouseContract ,EToken _EtokenContract,uint256 _price) public{\r\n        HouseContract = _HouseContract;\r\n        EtokenContract =  _EtokenContract;\r\n        roomPrice = _price;\r\n    }\r\n\r\n   \r\n\r\n    function register(address _user, string memory _password,string memory _email, string memory _name)public returns(bool success) {\r\n        address[] storage registed = registeredUsers;\r\n        User storage user = Users[msg.sender];\r\n        registed.push(msg.sender);\r\n        require(!user.registered); \r\n        require(msg.sender == _user);\r\n\r\n        user.password = _password;\r\n        user.name = _name;\r\n        user.email = _email;\r\n        user.registered = true;\r\n        return true;\r\n    } \r\n\r\n     function login(string memory _password)public view returns(bool ) {\r\n        User storage user = Users[msg.sender];\r\n        require(user.registered);\r\n         return (keccak256(abi.encodePacked(user.password)) == keccak256(abi.encodePacked(_password)));\r\n         \r\n\r\n     }\r\n     function rentRoom(bytes32 _housename,uint256 _roomnumber, uint256 _amount)public returns(bool success){\r\n         require(_amount>=roomPrice);\r\n         //require(HouseContract.registeredHouses(_housename).registered);\r\n         EtokenContract.sendFromTo(address(this),msg.sender, _amount);\r\n         HouseContract.updateRentRoom(_housename,_roomnumber);\r\n         return true;\r\n     }\r\n     function usersdipslay()public view returns(address[] memory) {\r\n         return registeredUsers;\r\n     }\r\n}",
  "sourcePath": "C:/Users/COLLINS/Desktop/TOKEN1/contracts/Interface.sol",
  "compiler": {
    "name": "solc",
    "version": "0.5.0+commit.1d4f565a.Emscripten.clang"
  },
  "schemaVersion": "3.0.0",
  "updatedAt": "2019-02-06T08:53:03.589Z",
  "devdoc": {
    "methods": {}
  },
  "userdoc": {
    "methods": {}
  }
}